{
  "contractName": "Coin",
  "abi": [
    {
      "inputs": [],
      "stateMutability": "nonpayable",
      "type": "constructor"
    },
    {
      "anonymous": false,
      "inputs": [
        {
          "indexed": false,
          "internalType": "address",
          "name": "from",
          "type": "address"
        },
        {
          "indexed": false,
          "internalType": "address",
          "name": "to",
          "type": "address"
        },
        {
          "indexed": false,
          "internalType": "uint256",
          "name": "amount",
          "type": "uint256"
        }
      ],
      "name": "Transfer",
      "type": "event"
    },
    {
      "inputs": [
        {
          "internalType": "address",
          "name": "",
          "type": "address"
        }
      ],
      "name": "balances",
      "outputs": [
        {
          "internalType": "uint256",
          "name": "",
          "type": "uint256"
        }
      ],
      "stateMutability": "view",
      "type": "function",
      "constant": true
    },
    {
      "inputs": [
        {
          "internalType": "address",
          "name": "receiver",
          "type": "address"
        },
        {
          "internalType": "uint256",
          "name": "amount",
          "type": "uint256"
        }
      ],
      "name": "mint",
      "outputs": [],
      "stateMutability": "nonpayable",
      "type": "function"
    },
    {
      "inputs": [
        {
          "internalType": "address",
          "name": "receiver",
          "type": "address"
        },
        {
          "internalType": "uint256",
          "name": "amount",
          "type": "uint256"
        }
      ],
      "name": "send",
      "outputs": [],
      "stateMutability": "nonpayable",
      "type": "function"
    }
  ],
  "bytecode": "0x60a060405234801561001057600080fd5b503373ffffffffffffffffffffffffffffffffffffffff1660808173ffffffffffffffffffffffffffffffffffffffff1660601b8152505060805160601c61063f610065600039600060c8015261063f6000f3fe608060405234801561001057600080fd5b50600436106100415760003560e01c806327e235e31461004657806340c10f1914610076578063d0679d3414610092575b600080fd5b610060600480360381019061005b9190610341565b6100ae565b60405161006d9190610489565b60405180910390f35b610090600480360381019061008b919061036e565b6100c6565b005b6100ac60048036038101906100a7919061036e565b6101ad565b005b60006020528060005260406000206000915090505481565b7f000000000000000000000000000000000000000000000000000000000000000073ffffffffffffffffffffffffffffffffffffffff163373ffffffffffffffffffffffffffffffffffffffff1614610154576040517f08c379a000000000000000000000000000000000000000000000000000000000815260040161014b90610469565b60405180910390fd5b806000808473ffffffffffffffffffffffffffffffffffffffff1673ffffffffffffffffffffffffffffffffffffffff16815260200190815260200160002060008282546101a291906104b5565b925050819055505050565b6000803373ffffffffffffffffffffffffffffffffffffffff1673ffffffffffffffffffffffffffffffffffffffff1681526020019081526020016000205481111561022e576040517f08c379a000000000000000000000000000000000000000000000000000000000815260040161022590610449565b60405180910390fd5b806000803373ffffffffffffffffffffffffffffffffffffffff1673ffffffffffffffffffffffffffffffffffffffff168152602001908152602001600020600082825461027c919061050b565b92505081905550806000808473ffffffffffffffffffffffffffffffffffffffff1673ffffffffffffffffffffffffffffffffffffffff16815260200190815260200160002060008282546102d191906104b5565b925050819055507fddf252ad1be2c89b69c2b068fc378daa952ba7f163c4a11628f55a4df523b3ef33838360405161030b93929190610412565b60405180910390a15050565b600081359050610326816105db565b92915050565b60008135905061033b816105f2565b92915050565b600060208284031215610357576103566105aa565b5b600061036584828501610317565b91505092915050565b60008060408385031215610385576103846105aa565b5b600061039385828601610317565b92505060206103a48582860161032c565b9150509250929050565b6103b78161053f565b82525050565b60006103ca6014836104a4565b91506103d5826105af565b602082019050919050565b60006103ed6000836104a4565b91506103f8826105d8565b600082019050919050565b61040c81610571565b82525050565b600060608201905061042760008301866103ae565b61043460208301856103ae565b6104416040830184610403565b949350505050565b60006020820190508181036000830152610462816103bd565b9050919050565b60006020820190508181036000830152610482816103e0565b9050919050565b600060208201905061049e6000830184610403565b92915050565b600082825260208201905092915050565b60006104c082610571565b91506104cb83610571565b9250827fffffffffffffffffffffffffffffffffffffffffffffffffffffffffffffffff03821115610500576104ff61057b565b5b828201905092915050565b600061051682610571565b915061052183610571565b9250828210156105345761053361057b565b5b828203905092915050565b600061054a82610551565b9050919050565b600073ffffffffffffffffffffffffffffffffffffffff82169050919050565b6000819050919050565b7f4e487b7100000000000000000000000000000000000000000000000000000000600052601160045260246000fd5b600080fd5b7f496e73756666696369656e742062616c616e6365000000000000000000000000600082015250565b50565b6105e48161053f565b81146105ef57600080fd5b50565b6105fb81610571565b811461060657600080fd5b5056fea264697066735822122084d773a9ec4bdac980d3c5bfc21d5793a107215ad2ccda4f580a207a124a73d264736f6c63430008060033",
  "immutableReferences": {
    "7": [
      {
        "length": 32,
        "start": 200
      }
    ]
  },
  "source": "// SPDX-License-Identifier: MIT\r\npragma solidity ^0.8.6;\r\n\r\ncontract Coin {\r\n    mapping (address => uint) public balances;\r\n    address immutable minter;\r\n\r\n    event Transfer(address from, address to, uint amount);\r\n\r\n    constructor() {\r\n        minter = msg.sender;\r\n    }\r\n\r\n    function mint(address receiver, uint amount) public {\r\n        require(msg.sender == minter, \"\");\r\n        balances[receiver] += amount;\r\n    }\r\n\r\n    function send(address receiver, uint amount) public {\r\n        require(amount <= balances[msg.sender], \"Insufficient balance\"); \r\n\r\n        balances[msg.sender] -= amount;\r\n        balances[receiver] += amount;\r\n\r\n        emit Transfer(msg.sender, receiver, amount);\r\n    }\r\n  }\r\n",
  "sourcePath": "C:\\Users\\Work\\dev\\utb\\fai-utb-k4swi\\av5bc\\3\\contracts\\coin.sol",
  "compiler": {
    "name": "solc",
    "version": "0.8.6+commit.11564f7e.Emscripten.clang"
  },
  "schemaVersion": "3.4.3",
  "updatedAt": "2021-10-14T12:24:21.277Z",
  "networkType": "ethereum",
  "devdoc": {
    "kind": "dev",
    "methods": {},
    "version": 1
  },
  "userdoc": {
    "kind": "user",
    "methods": {},
    "version": 1
  }
}