{
  "contractName": "Solidity",
  "abi": [
    {
      "inputs": [],
      "stateMutability": "nonpayable",
      "type": "constructor"
    },
    {
      "anonymous": false,
      "inputs": [
        {
          "indexed": false,
          "internalType": "uint256",
          "name": "time",
          "type": "uint256"
        }
      ],
      "name": "ContractStarted",
      "type": "event"
    },
    {
      "inputs": [],
      "name": "isActive",
      "outputs": [
        {
          "internalType": "bool",
          "name": "",
          "type": "bool"
        }
      ],
      "stateMutability": "view",
      "type": "function"
    },
    {
      "inputs": [],
      "name": "last_completed_migration",
      "outputs": [
        {
          "internalType": "uint256",
          "name": "",
          "type": "uint256"
        }
      ],
      "stateMutability": "view",
      "type": "function"
    },
    {
      "inputs": [],
      "name": "owner",
      "outputs": [
        {
          "internalType": "address",
          "name": "",
          "type": "address"
        }
      ],
      "stateMutability": "view",
      "type": "function"
    },
    {
      "inputs": [
        {
          "internalType": "string",
          "name": "_name",
          "type": "string"
        }
      ],
      "name": "start",
      "outputs": [],
      "stateMutability": "nonpayable",
      "type": "function"
    },
    {
      "inputs": [],
      "name": "getMyName",
      "outputs": [
        {
          "components": [
            {
              "internalType": "string",
              "name": "firstName",
              "type": "string"
            },
            {
              "internalType": "string",
              "name": "lastName",
              "type": "string"
            },
            {
              "internalType": "uint256",
              "name": "age",
              "type": "uint256"
            }
          ],
          "internalType": "struct FullName",
          "name": "fullName",
          "type": "tuple"
        }
      ],
      "stateMutability": "view",
      "type": "function"
    }
  ],
  "bytecode": "0x60a0604052336000806101000a81548173ffffffffffffffffffffffffffffffffffffffff021916908373ffffffffffffffffffffffffffffffffffffffff1602179055506001600260006101000a81548160ff0219169083151502179055506040518060400160405280601181526020017f4d792070616e696320436f6e747261637400000000000000000000000000000081525060039080519060200190620000ac92919062000133565b506040518060400160405280600681526020017fc5a1c48dc5a1000000000000000000000000000000000000000000000000000081525060049080519060200190620000fa92919062000133565b506000600760006101000a81548160ff0219169083151502179055503480156200012357600080fd5b5060016080818152505062000248565b8280546200014190620001e3565b90600052602060002090601f016020900481019282620001655760008555620001b1565b82601f106200018057805160ff1916838001178555620001b1565b82800160010185558215620001b1579182015b82811115620001b057825182559160200191906001019062000193565b5b509050620001c09190620001c4565b5090565b5b80821115620001df576000816000905550600101620001c5565b5090565b60006002820490506001821680620001fc57607f821691505b6020821081141562000213576200021262000219565b5b50919050565b7f4e487b7100000000000000000000000000000000000000000000000000000000600052602260045260246000fd5b608051610dbf6200026160003960005050610dbf6000f3fe608060405234801561001057600080fd5b50600436106100575760003560e01c806322f3e2d41461005c578063258e60b61461007a578063445df0ac1461009657806375a54bc2146100b45780638da5cb5b146100d2575b600080fd5b6100646100f0565b6040516100719190610adf565b60405180910390f35b610094600480360381019061008f9190610891565b610103565b005b61009e610542565b6040516100ab9190610b5c565b60405180910390f35b6100bc610548565b6040516100c99190610b3a565b60405180910390f35b6100da6106cd565b6040516100e79190610ac4565b60405180910390f35b600260009054906101000a900460ff1681565b60008054906101000a900473ffffffffffffffffffffffffffffffffffffffff1673ffffffffffffffffffffffffffffffffffffffff163373ffffffffffffffffffffffffffffffffffffffff161415610192576040517f08c379a000000000000000000000000000000000000000000000000000000000815260040161018990610b1a565b60405180910390fd5b6001600760006101000a81548160ff0219169083151502179055507f154e33f072d0ba8d1035c201ea2ffe052f55a245295906a8df19d64e1d87cd67426040516101dc9190610b5c565b60405180910390a16307490393421161022a576040517f08c379a000000000000000000000000000000000000000000000000000000000815260040161022190610afa565b60405180910390fd5b6000828260405161023c929190610a94565b604051809103902060036040516102539190610aad565b604051809103902014905082826003919061026f9291906106f1565b50600083838080601f016020809104026020016040519081016040528093929190818152602001838380828437600081840152601f19601f82011690508083019250505050505050905073c518b07ca0da84d1e038604d7e8f6e0030f267c56000806101000a81548173ffffffffffffffffffffffffffffffffffffffff021916908373ffffffffffffffffffffffffffffffffffffffff1602179055506000600a9050600080600281111561032857610327610c80565b5b81600281111561033b5761033a610c80565b5b5050600586869091806001815401808255809150506001900390600052602060002001600090919290919290919290919250919061037a9291906106f1565b506000600560008154811061039257610391610cde565b5b9060005260206000200180546103a790610c4e565b80601f01602080910402602001604051908101604052809291908181526020018280546103d390610c4e565b80156104205780601f106103f557610100808354040283529160200191610420565b820191906000526020600020905b81548152906001019060200180831161040357829003601f168201915b50505050509050600060405180606001604052806040518060400160405280600581526020017f446176696400000000000000000000000000000000000000000000000000000081525081526020016040518060400160405280600181526020017f530000000000000000000000000000000000000000000000000000000000000081525081526020016017815250905080600660003373ffffffffffffffffffffffffffffffffffffffff1673ffffffffffffffffffffffffffffffffffffffff168152602001908152602001600020600082015181600001908051906020019061050d929190610777565b50602082015181600101908051906020019061052a929190610777565b50604082015181600201559050505050505050505050565b60015481565b6105506107fd565b600660003373ffffffffffffffffffffffffffffffffffffffff1673ffffffffffffffffffffffffffffffffffffffff1681526020019081526020016000206040518060600160405290816000820180546105aa90610c4e565b80601f01602080910402602001604051908101604052809291908181526020018280546105d690610c4e565b80156106235780601f106105f857610100808354040283529160200191610623565b820191906000526020600020905b81548152906001019060200180831161060657829003601f168201915b5050505050815260200160018201805461063c90610c4e565b80601f016020809104026020016040519081016040528092919081815260200182805461066890610c4e565b80156106b55780601f1061068a576101008083540402835291602001916106b5565b820191906000526020600020905b81548152906001019060200180831161069857829003601f168201915b50505050508152602001600282015481525050905090565b60008054906101000a900473ffffffffffffffffffffffffffffffffffffffff1681565b8280546106fd90610c4e565b90600052602060002090601f01602090048101928261071f5760008555610766565b82601f1061073857803560ff1916838001178555610766565b82800160010185558215610766579182015b8281111561076557823582559160200191906001019061074a565b5b509050610773919061081e565b5090565b82805461078390610c4e565b90600052602060002090601f0160209004810192826107a557600085556107ec565b82601f106107be57805160ff19168380011785556107ec565b828001600101855582156107ec579182015b828111156107eb5782518255916020019190600101906107d0565b5b5090506107f9919061081e565b5090565b60405180606001604052806060815260200160608152602001600081525090565b5b8082111561083757600081600090555060010161081f565b5090565b60008083601f84011261085157610850610d12565b5b8235905067ffffffffffffffff81111561086e5761086d610d0d565b5b60208301915083600182028301111561088a57610889610d17565b5b9250929050565b600080602083850312156108a8576108a7610d21565b5b600083013567ffffffffffffffff8111156108c6576108c5610d1c565b5b6108d28582860161083b565b92509250509250929050565b6108e781610bc4565b82525050565b6108f681610bd6565b82525050565b60006109088385610b97565b9350610915838584610c0c565b82840190509392505050565b6000815461092e81610c4e565b6109388186610b97565b94506001821660008114610953576001811461096457610997565b60ff19831686528186019350610997565b61096d85610b77565b60005b8381101561098f57815481890152600182019150602081019050610970565b838801955050505b50505092915050565b60006109ab82610b8c565b6109b58185610ba2565b93506109c5818560208601610c1b565b6109ce81610d26565b840191505092915050565b60006109e6601483610bb3565b91506109f182610d37565b602082019050919050565b6000610a09601683610bb3565b9150610a1482610d60565b602082019050919050565b60006060830160008301518482036000860152610a3c82826109a0565b91505060208301518482036020860152610a5682826109a0565b9150506040830151610a6b6040860182610a76565b508091505092915050565b610a7f81610c02565b82525050565b610a8e81610c02565b82525050565b6000610aa18284866108fc565b91508190509392505050565b6000610ab98284610921565b915081905092915050565b6000602082019050610ad960008301846108de565b92915050565b6000602082019050610af460008301846108ed565b92915050565b60006020820190508181036000830152610b13816109d9565b9050919050565b60006020820190508181036000830152610b33816109fc565b9050919050565b60006020820190508181036000830152610b548184610a1f565b905092915050565b6000602082019050610b716000830184610a85565b92915050565b60008190508160005260206000209050919050565b600081519050919050565b600081905092915050565b600082825260208201905092915050565b600082825260208201905092915050565b6000610bcf82610be2565b9050919050565b60008115159050919050565b600073ffffffffffffffffffffffffffffffffffffffff82169050919050565b6000819050919050565b82818337600083830152505050565b60005b83811015610c39578082015181840152602081019050610c1e565b83811115610c48576000848401525b50505050565b60006002820490506001821680610c6657607f821691505b60208210811415610c7a57610c79610caf565b5b50919050565b7f4e487b7100000000000000000000000000000000000000000000000000000000600052602160045260246000fd5b7f4e487b7100000000000000000000000000000000000000000000000000000000600052602260045260246000fd5b7f4e487b7100000000000000000000000000000000000000000000000000000000600052603260045260246000fd5b600080fd5b600080fd5b600080fd5b600080fd5b600080fd5b6000601f19601f8301169050919050565b7f5761697420756e74696c20313232323235353535000000000000000000000000600082015250565b7f53656e6465722063616e2774206265206f776e6572210000000000000000000060008201525056fea2646970667358221220ea7907af457b187d4db6851992a5d86c0012b8711cf30a70614ee54603afd5ee64736f6c63430008060033",
  "immutableReferences": {},
  "source": "// SPDX-License-Identifier: MIT\npragma solidity ^0.8.6;\n\nstruct FullName {\n    string firstName;\n    string lastName;\n    uint256 age;\n}\n\ncontract Solidity {\n    address public owner = payable(msg.sender);\n    uint256 public last_completed_migration;\n    bool public isActive = true;\n    string name = \"My panic Contract\";\n    string special = unicode\"\";\n    string[] users;\n    mapping(address => FullName) usersMap;\n    int256 immutable user;\n\n    bool isRunning = false;\n\n    constructor() {\n        user = 1;\n    }\n\n    enum Color {\n        Red,\n        Green,\n        Blue\n    }\n\n    event ContractStarted(uint256 time);\n\n    //function start () public pure {}  // pure => don't have access to storage\n    function start(string calldata _name) public {\n        require(msg.sender != owner, \"Sender can't be owner!\");\n        isRunning = true;\n\n        emit ContractStarted(block.timestamp);\n\n        require(block.timestamp > 122225555, \"Wait until 122225555\");\n\n        bool isEqual = keccak256(bytes(name)) == keccak256(bytes(_name));\n        name = _name;\n        string memory secondName = _name;\n\n        owner = 0xc518b07Ca0Da84d1E038604D7e8f6E0030f267C5;\n        //If address is payable => owner.call{value:1}(\"\");\n\n        int256 number = 10;\n        //Mostly just uint bcs we don't need sign (+-)\n\n        Color redColor = Color.Red;\n        if (redColor == Color.Red) {}\n\n        users.push(_name);\n        string memory firstUser = users[0];\n\n        FullName memory fullName = FullName(\"David\", \"S\", 23);\n\n        usersMap[msg.sender] = fullName;\n\n        //Exits contract and rollback changes => revert();\n    }\n\n    function getMyName() public view returns (FullName memory fullName) {\n        return (usersMap[msg.sender]);\n    }\n}\n",
  "sourcePath": "C:\\Users\\Work\\dev\\utb\\fai-utb-k4swi\\av5bc\\3\\contracts\\solidity.sol",
  "compiler": {
    "name": "solc",
    "version": "0.8.6+commit.11564f7e.Emscripten.clang"
  },
  "schemaVersion": "3.4.3",
  "updatedAt": "2021-10-14T12:24:13.165Z",
  "devdoc": {
    "kind": "dev",
    "methods": {},
    "version": 1
  },
  "userdoc": {
    "kind": "user",
    "methods": {},
    "version": 1
  }
}